5200101001   00038010008000000            5200110001 9999    20151231 01001   0003801                         MELILLA                  MELILLA                  00080ADRIANA, DOÑA            00000                                                              5200110001 9999 
5200101001   00038010008000000            5200120002 9998    20151231 01001   0003801                         MELILLA                  MELILLA                  00080ADRIANA, DOÑA            00000                                                              5200120002 9998 
5200101001   00038010014000000            5200120002 9998    20151231 01001   0003801                         MELILLA                  MELILLA                  00140AGUILAR DE MERA, TENIENTE00000                                                              5200120002 9998 
5200101001   00038010014000000            5200110005 9999    20151231 01001   0003801                         MELILLA                  MELILLA                  00140AGUILAR DE MERA, TENIENTE00000                                                              5200110005 9999 
5200101001   00038010020500000            5200110001 9999    20151231 01001   0003801                         MELILLA                  MELILLA                  00205ALCAZABA, DE LA          00000                                                              5200110001 9999 
5200101001   00038010020500000            5200120002 9998    20151231 01001   0003801                         MELILLA                  MELILLA                  00205ALCAZABA, DE LA          00000                                                              5200120002 9998 
5200101001   00038010026000000            5200110001 9999    20151231 01001   0003801                         MELILLA                  MELILLA                  00260ALFONSO XII              00000                                                              5200110001 9999 
5200101001   00038010026000000            5200120002 9998    20151231 01001   0003801                         MELILLA                  MELILLA                  00260ALFONSO XII              00000                                                              5200120002 9998 
5200101001   00038010029500000            5200110001 9999    20151231 01001   0003801                         MELILLA                  MELILLA                  00295ALJIBES, DE LOS          00000                                                              5200110001 9999 
5200101001   00038010029500000            5200120002 9998    20151231 01001   0003801                         MELILLA                  MELILLA                  00295ALJIBES, DE LOS          00000                                                              5200120002 9998 
5200101001   00038010030000000            5200100000S0000S   20151231 01001   0003801                         MELILLA                  MELILLA                  00300PEDRO DE ESTOPIÑAN       00000                                                              5200100000S0000S
5200101001   00038010030000000            5200110001 9999    20151231 01001   0003801                         MELILLA                  MELILLA                  00300PEDRO DE ESTOPIÑAN       00000                                                              5200110001 9999 
5200101001   00038010030000000            5200120002 9998    20151231 01001   0003801                         MELILLA                  MELILLA                  00300PEDRO DE ESTOPIÑAN       00000                                                              5200120002 9998 
5200101001   00038010032000000            5200110003 9999    20151231 01001   0003801                         MELILLA                  MELILLA                  00320ALMODOVAR, DUQUE DE      00000                                                              5200110003 9999 
5200101001   00038010032000000            5200120004 9998    20151231 01001   0003801                         MELILLA                  MELILLA                  00320ALMODOVAR, DUQUE DE      00000                                                              5200120004 9998 
5200101001   00038010037000000            5200110001 9999    20151231 01001   0003801                         MELILLA                  MELILLA                  00370ALTA                     00000                                                              5200110001 9999 
5200101001   00038010037000000            5200120002 9998    20151231 01001   0003801                         MELILLA                  MELILLA                  00370ALTA                     00000                                                              5200120002 9998 
5200101001   00038010063000000            5200100000S0000S   20151231 01001   0003801                         MELILLA                  MELILLA                  00630ARMAS, DE                00000                                                              5200100000S0000S
5200101001   00038010063000000            5200110001 9999    20151231 01001   0003801                         MELILLA                  MELILLA                  00630ARMAS, DE                00000                                                              5200110001 9999 
5200101001   00038010063000000            5200120002 9998    20151231 01001   0003801                         MELILLA                  MELILLA                  00630ARMAS, DE                00000                                                              5200120002 9998 
5200101001   00038010067500000            5200110001 9999    20151231 01001   0003801                         MELILLA                  MELILLA                  00675AVANZADILLA, DE LA       00000                                                              5200110001 9999 
5200101001   00038010067500000            5200120002 9998    20151231 01001   0003801                         MELILLA                  MELILLA                  00675AVANZADILLA, DE LA       00000                                                              5200120002 9998 
5200101001   00038010096000000            5200110001 9999    20151231 01001   0003801                         MELILLA                  MELILLA                  00960CALDERON DE LA BARCA     00000                                                              5200110001 9999 
5200101001   00038010096000000            5200120002 9998    20151231 01001   0003801                         MELILLA                  MELILLA                  00960CALDERON DE LA BARCA     00000                                                              5200120002 9998 
5200101001   00038010103000000            5200120012 0016    20151231 01001   0003801                         MELILLA                  MELILLA                  01030CANDIDO LOBERA           00000                                                              5200120012 0016 
5200101001   00038010110100000            5200110001 9999    20151231 01001   0003801                         MELILLA                  MELILLA                  01101MUELLE DE RIBERA         00000                                                              5200110001 9999 
5200101001   00038010110100000            5200120002 9998    20151231 01001   0003801                         MELILLA                  MELILLA                  01101MUELLE DE RIBERA         00000                                                              5200120002 9998 
5200101001   00038010110100000            5200100000S0000S   20151231 01001   0003801                         MELILLA                  MELILLA                  01101MUELLE DE RIBERA         00000                                                              5200100000S0000S
5200101001   00038010125900000            5200100000S0000S   20151231 01001   0003801                         MELILLA                  MELILLA                  01259CUATRO CULTURAS, DE LAS  00000                                                              5200100000S0000S
5200101001   00038010125900000            5200110001 9999    20151231 01001   0003801                         MELILLA                  MELILLA                  01259CUATRO CULTURAS, DE LAS  00000                                                              5200110001 9999 
5200101001   00038010125900000            5200120002 9998    20151231 01001   0003801                         MELILLA                  MELILLA                  01259CUATRO CULTURAS, DE LAS  00000                                                              5200120002 9998 
5200101001   00038010147000000            5200110001 9999    20151231 01001   0003801                         MELILLA                  MELILLA                  01470CONCEPCION               00000                                                              5200110001 9999 
5200101001   00038010147000000            5200120002 9998    20151231 01001   0003801                         MELILLA                  MELILLA                  01470CONCEPCION               00000                                                              5200120002 9998 
5200101001   00038010158300000            5200110001 9999    20151231 01001   0003801                         MELILLA                  MELILLA                  01583CULTURAS, DE LAS         00000                                                              5200110001 9999 
5200101001   00038010158300000            5200120002 9998    20151231 01001   0003801                         MELILLA                  MELILLA                  01583CULTURAS, DE LAS         00000                                                              5200120002 9998 
5200101001   00038010207100000            5200110001 9999    20151231 01001   0003801                         MELILLA                  MELILLA                  02071FLORENTINA, DE LA        00000                                                              5200110001 9999 
5200101001   00038010207100000            5200120002 9998    20151231 01001   0003801                         MELILLA                  MELILLA                  02071FLORENTINA, DE LA        00000                                                              5200120002 9998 
5200101001   00038010211000000            5200110001 9999    20151231 01001   0003801                         MELILLA                  MELILLA                  02110FRANCISCO DE MIRANDA     00000                                                              5200110001 9999 
5200101001   00038010211000000            5200120002 9998    20151231 01001   0003801                         MELILLA                  MELILLA                  02110FRANCISCO DE MIRANDA     00000                                                              5200120002 9998 
5200101001   00038010211500000            5200110001 9999    20151231 01001   0003801                         MELILLA                  MELILLA                  02115FRANCISCO MAS AZNAR      00000                                                              5200110001 9999 
5200101001   00038010211500000            5200120002 9998    20151231 01001   0003801                         MELILLA                  MELILLA                  02115FRANCISCO MAS AZNAR      00000                                                              5200120002 9998 
5200101001   00038010216000000            5200110001 9999    20151231 01001   0003801                         MELILLA                  MELILLA                  02160FUERTE DE SAN CARLOS     00000                                                              5200110001 9999 
5200101001   00038010216000000            5200120002 9998    20151231 01001   0003801                         MELILLA                  MELILLA                  02160FUERTE DE SAN CARLOS     00000                                                              5200120002 9998 
5200101001   00038010217000000            5200110001 9999    20151231 01001   0003801                         MELILLA                  MELILLA                  02170FUERTE DE SAN MIGUEL     00000                                                              5200110001 9999 
5200101001   00038010217000000            5200120002 9998    20151231 01001   0003801                         MELILLA                  MELILLA                  02170FUERTE DE SAN MIGUEL     00000                                                              5200120002 9998 
5200101001   00038010273000000            5200110001 9999    20151231 01001   0003801                         MELILLA                  MELILLA                  02730HORNABEQUE, FOSO DE      00000                                                              5200110001 9999 
5200101001   00038010273000000            5200120002 9998    20151231 01001   0003801                         MELILLA                  MELILLA                  02730HORNABEQUE, FOSO DE      00000                                                              5200120002 9998 
5200101001   00038010273000000            5200100000S0000S   20151231 01001   0003801                         MELILLA                  MELILLA                  02730HORNABEQUE, FOSO DE      00000                                                              5200100000S0000S
5200101001   00038010274000000            5200110001 9999    20151231 01001   0003801                         MELILLA                  MELILLA                  02740HORNO                    00000                                                              5200110001 9999 
5200101001   00038010274000000            5200120002 9998    20151231 01001   0003801                         MELILLA                  MELILLA                  02740HORNO                    00000                                                              5200120002 9998 
5200101001   00038010281200000            5200110001 9999    20151231 01001   0003801                         MELILLA                  MELILLA                  02812INGENIERO JUAN CABALLERO 00000                                                              5200110001 9999 
5200101001   00038010281200000            5200120002 9998    20151231 01001   0003801                         MELILLA                  MELILLA                  02812INGENIERO JUAN CABALLERO 00000                                                              5200120002 9998 
5200101001   00038010281500000            5200110001 9999    20151231 01001   0003801                         MELILLA                  MELILLA                  02815INGENIERO MIGUEL DE PEREA00000                                                              5200110001 9999 
5200101001   00038010281500000            5200120002 9998    20151231 01001   0003801                         MELILLA                  MELILLA                  02815INGENIERO MIGUEL DE PEREA00000                                                              5200120002 9998 
5200101001   00038010283600000            5200110001 9999    20151231 01001   0003801                         MELILLA                  MELILLA                  02836MARINA, PUERTA Y TUNEL   00000                                                              5200110001 9999 
5200101001   00038010291000000            5200110001 9999    20151231 01001   0003801                         MELILLA                  MELILLA                  02910JARDINES                 00000                                                              5200110001 9999 
5200101001   00038010291000000            5200120002 9998    20151231 01001   0003801                         MELILLA                  MELILLA                  02910JARDINES                 00000                                                              5200120002 9998 
5200101001   00038010326000000            5200110001 9999    20151231 01001   0003801                         MELILLA                  MELILLA                  03260LEDESMA                  00000                                                              5200110001 9999 
5200101001   00038010326000000            5200120002 9998    20151231 01001   0003801                         MELILLA                  MELILLA                  03260LEDESMA                  00000                                                              5200120002 9998 
5200101001   00038010343000000            5200120004 9998    20151231 01001   0003801                         MELILLA                  MELILLA                  03430MACIAS, GENERAL          00000                                                              5200120004 9998 
5200101001   00038010343000000            5200110007 9999    20151231 01001   0003801                         MELILLA                  MELILLA                  03430MACIAS, GENERAL          00000                                                              5200110007 9999 
5200101001   00038010350000000            5200110001 9999    20151231 01001   0003801                         MELILLA                  MELILLA                  03500DUQUE DE AHUMADA         00000                                                              5200110001 9999 
5200101001   00038010350000000            5200120002 9998    20151231 01001   0003801                         MELILLA                  MELILLA                  03500DUQUE DE AHUMADA         00000                                                              5200120002 9998 
5200101001   00038010351000000            5200110001 0001    20151231 01001   0003801                         MELILLA                  MELILLA                  03510DUQUE DE AHUMADA-MANTELET00000                                                              5200110001 0001 
5200101001   00038010351000000            5200120002 0002    20151231 01001   0003801                         MELILLA                  MELILLA                  03510DUQUE DE AHUMADA-MANTELET00000                                                              5200120002 0002 
5200101001   00038010351500000            5200110001 9999    20151231 01001   0003801                         MELILLA                  MELILLA                  03515MAESTRANZA, DE LA        00000                                                              5200110001 9999 
5200101001   00038010351500000            5200120002 9998    20151231 01001   0003801                         MELILLA                  MELILLA                  03515MAESTRANZA, DE LA        00000                                                              5200120002 9998 
5200101001   00038010386000000            5200110001 9999    20151231 01001   0003801                         MELILLA                  MELILLA                  03860MIGUEL ACOSTA            00000                                                              5200110001 9999 
5200101001   00038010386000000            5200120002 9998    20151231 01001   0003801                         MELILLA                  MELILLA                  03860MIGUEL ACOSTA            00000                                                              5200120002 9998 
5200101001   00038010403000000            5200110001 9999    20151231 01001   0003801                         MELILLA                  MELILLA                  04030MORO, DEL                00000                                                              5200110001 9999 
5200101001   00038010403000000            5200120002 9998    20151231 01001   0003801                         MELILLA                  MELILLA                  04030MORO, DEL                00000                                                              5200120002 9998 
5200101001   00038010404500000            5200100000S0000S   20151231 01001   0003801                         MELILLA                  MELILLA                  04045MUELLE DE RIBERA         00000                                                              5200100000S0000S
5200101001   00038010404500000            5200110001 9999    20151231 01001   0003801                         MELILLA                  MELILLA                  04045MUELLE DE RIBERA         00000                                                              5200110001 9999 
5200101001   00038010404500000            5200120002 9998    20151231 01001   0003801                         MELILLA                  MELILLA                  04045MUELLE DE RIBERA         00000                                                              5200120002 9998 
5200101001   00038010428000000            5200120002 0014    20151231 01001   0003801                         MELILLA                  MELILLA                  04280PABLO VALLESCA           00000                                                              5200120002 0014 
5200101001   00038010434000000            5200110001 9999    20151231 01001   0003801                         MELILLA                  MELILLA                  04340PARADA, DE LA            00000                                                              5200110001 9999 
5200101001   00038010434000000            5200120002 9998    20151231 01001   0003801                         MELILLA                  MELILLA                  04340PARADA, DE LA            00000                                                              5200120002 9998 
5200101001   00038010446000000            5200100000S0000S   20151231 01001   0003801                         MELILLA                  MELILLA                  04460YAMIN A. BENARROCH       00000                                                              5200100000S0000S
5200101001   00038010446000000            5200110001 9999    20151231 01001   0003801                         MELILLA                  MELILLA                  04460YAMIN A. BENARROCH       00000                                                              5200110001 9999 
5200101001   00038010446000000            5200120002 9998    20151231 01001   0003801                         MELILLA                  MELILLA                  04460YAMIN A. BENARROCH       00000                                                              5200120002 9998 
5200101001   00038010509000000            5200110001 9999    20151231 01001   0003801                         MELILLA                  MELILLA                  05090SAN ANTON                00000                                                              5200110001 9999 
5200101001   00038010509000000            5200120002 9998    20151231 01001   0003801                         MELILLA                  MELILLA                  05090SAN ANTON                00000                                                              5200120002 9998 
5200101001   00038010516000000            5200110001 9999    20151231 01001   0003801                         MELILLA                  MELILLA                  05160SAN MIGUEL               00000                                                              5200110001 9999 
5200101001   00038010516000000            5200120002 9998    20151231 01001   0003801                         MELILLA                  MELILLA                  05160SAN MIGUEL               00000                                                              5200120002 9998 
5200101001   00038010525000000            5200110001 9999    20151231 01001   0003801                         MELILLA                  MELILLA                  05250SANTIAGO                 00000                                                              5200110001 9999 
5200101001   00038010525000000            5200120002 9998    20151231 01001   0003801                         MELILLA                  MELILLA                  05250SANTIAGO                 00000                                                              5200120002 9998 
5200101001   00038010537000000            5200120002 0008    20151231 01001   0003801                         MELILLA                  MELILLA                  05370SAN JUAN                 00000                                                              5200120002 0008 
5200101001   00038010540000000            5200110001 9999    20151231 01001   0003801                         MELILLA                  MELILLA                  05400SOLEDAD                  00000                                                              5200110001 9999 
5200101001   00038010540000000            5200120002 9998    20151231 01001   0003801                         MELILLA                  MELILLA                  05400SOLEDAD                  00000                                                              5200120002 9998 
5200101001   00038010562000000            5200110001 9999    20151231 01001   0003801                         MELILLA                  MELILLA                  05620TORRALBA, INSPECTOR      00000                                                              5200110001 9999 
5200101001   00038010562000000            5200120002 9998    20151231 01001   0003801                         MELILLA                  MELILLA                  05620TORRALBA, INSPECTOR      00000                                                              5200120002 9998 
5200101001   00038010577000000            5200110001 9999    20151231 01001   0003801                         MELILLA                  MELILLA                  05770VEEDOR, DEL              00000                                                              5200110001 9999 
5200101001   00038010577000000            5200120002 9998    20151231 01001   0003801                         MELILLA                  MELILLA                  05770VEEDOR, DEL              00000                                                              5200120002 9998 
5200101002   00038010003000000            5200110001 9999    20151231 01002   0003801                         MELILLA                  MELILLA                  00030ACCESO A BLAS DE OTERO   00000                                                              5200110001 9999 
5200101002   00038010003000000            5200120002 9998    20151231 01002   0003801                         MELILLA                  MELILLA                  00030ACCESO A BLAS DE OTERO   00000                                                              5200120002 9998 
5200101002   00038010048000000            5200110001 9999    20151231 01002   0003801                         MELILLA                  MELILLA                  00480ANTONIO MACHADO          00000                                                              5200110001 9999 
5200101002   00038010048000000            5200120002 9998    20151231 01002   0003801                         MELILLA                  MELILLA                  00480ANTONIO MACHADO          00000                                                              5200120002 9998 
5200101002   00038010083000000            5200110001 9999    20151231 01002   0003801                         MELILLA                  MELILLA                  00830BLAS DE OTERO            00000                                                              5200110001 9999 
5200101002   00038010083000000            5200120002 9998    20151231 01002   0003801                         MELILLA                  MELILLA                  00830BLAS DE OTERO            00000                                                              5200120002 9998 
5200101002   00038010103000000            5200100000S0000S   20151231 01002   0003801                         MELILLA                  MELILLA                  01030CANDIDO LOBERA           00000                                                              5200100000S0000S
5200101002   00038010103000000            5200110011 9999    20151231 01002   0003801                         MELILLA                  MELILLA                  01030CANDIDO LOBERA           00000                                                              5200110011 9999 
5200101002   00038010103000000            5200120018 9998    20151231 01002   0003801                         MELILLA                  MELILLA                  01030CANDIDO LOBERA           00000                                                              5200120018 9998 
5200101002   00038010130500000            5200120002 9998    20151231 01002   0003801                         MELILLA                  MELILLA                  01305CASTELLON DE LA PLANA    00000                                                              5200120002 9998 
5200101002   00038010166000000            5200110001 9999    20151231 01002   0003801                         MELILLA                  MELILLA                  01660DAMASO ALONSO            00000                                                              5200110001 9999 
5200101002   00038010166000000            5200120002 9998    20151231 01002   0003801                         MELILLA                  MELILLA                  01660DAMASO ALONSO            00000                                                              5200120002 9998 
5200101002   00038010181000000            5200110001 9999    20151231 01002   0003801                         MELILLA                  MELILLA                  01810EMILIO PRADOS            00000                                                              5200110001 9999 
5200101002   00038010181000000            5200120002 9998    20151231 01002   0003801                         MELILLA                  MELILLA                  01810EMILIO PRADOS            00000                                                              5200120002 9998 
5200101002   00038010200000000            5200110001 9999    20151231 01002   0003801                         MELILLA                  MELILLA                  02000FEDERICO GARCIA LORCA    00000                                                              5200110001 9999 
5200101002   00038010200000000            5200120002 9998    20151231 01002   0003801                         MELILLA                  MELILLA                  02000FEDERICO GARCIA LORCA    00000                                                              5200120002 9998 
5200101002   00038010218000000            5200110001 9999    20151231 01002   0003801                         MELILLA                  MELILLA                  02180GABRIEL CELAYA           00000                                                              5200110001 9999 
5200101002   00038010218000000            5200120002 9998    20151231 01002   0003801                         MELILLA                  MELILLA                  02180GABRIEL CELAYA           00000                                                              5200120002 9998 
5200101002   00038010219000000            5200110001 9999    20151231 01002   0003801                         MELILLA                  MELILLA                  02190GABRIEL CELAYA           00000                                                              5200110001 9999 
5200101002   00038010219000000            5200120002 9998    20151231 01002   0003801                         MELILLA                  MELILLA                  02190GABRIEL CELAYA           00000                                                              5200120002 9998 
5200101002   00038010232000000            5200210001 9999    20151231 01002   0003801                         MELILLA                  MELILLA                  02320GERARDO DIEGO            00000                                                              5200210001 9999 
5200101002   00038010232000000            5200220002 9998    20151231 01002   0003801                         MELILLA                  MELILLA                  02320GERARDO DIEGO            00000                                                              5200220002 9998 
5200101002   00038010295000000            5200110001 9999    20151231 01002   0003801                         MELILLA                  MELILLA                  02950JORGE GUILLEN            00000                                                              5200110001 9999 
5200101002   00038010295000000            5200120002 9998    20151231 01002   0003801                         MELILLA                  MELILLA                  02950JORGE GUILLEN            00000                                                              5200120002 9998 
5200101002   00038010297000000            5200110001 9999    20151231 01002   0003801                         MELILLA                  MELILLA                  02970JOSE BERGAMIN            00000                                                              5200110001 9999 
5200101002   00038010297000000            5200120002 9998    20151231 01002   0003801                         MELILLA                  MELILLA                  02970JOSE BERGAMIN            00000                                                              5200120002 9998 
5200101002   00038010300000000            5200110001 9999    20151231 01002   0003801                         MELILLA                  MELILLA                  03000JOSE MORENO VILLA        00000                                                              5200110001 9999 
5200101002   00038010300000000            5200120002 9998    20151231 01002   0003801                         MELILLA                  MELILLA                  03000JOSE MORENO VILLA        00000                                                              5200120002 9998 
5200101002   00038010309000000            5200110001 9999    20151231 01002   0003801                         MELILLA                  MELILLA                  03090JUAN RAMON JIMENEZ-A     00000                                                              5200110001 9999 
5200101002   00038010309000000            5200120002 9998    20151231 01002   0003801                         MELILLA                  MELILLA                  03090JUAN RAMON JIMENEZ-A     00000                                                              5200120002 9998 
5200101002   00038010310000000            5200110001 9999    20151231 01002   0003801                         MELILLA                  MELILLA                  03100JUAN RAMON JIMENEZ-B     00000                                                              5200110001 9999 
5200101002   00038010310000000            5200120002 9998    20151231 01002   0003801                         MELILLA                  MELILLA                  03100JUAN RAMON JIMENEZ-B     00000                                                              5200120002 9998 
5200101002   00038010322200000            5200110001 9999    20151231 01002   0003801                         MELILLA                  MELILLA                  03222LA NOVELA                00000                                                              5200110001 9999 
5200101002   00038010322200000            5200120002 9998    20151231 01002   0003801                         MELILLA                  MELILLA                  03222LA NOVELA                00000                                                              5200120002 9998 
5200101002   00038010322300000            5200110001 9999    20151231 01002   0003801                         MELILLA                  MELILLA                  03223LAS ODAS                 00000                                                              5200110001 9999 
5200101002   00038010322300000            5200120002 9998    20151231 01002   0003801                         MELILLA                  MELILLA                  03223LAS ODAS                 00000                                                              5200120002 9998 
5200101002   00038010322400000            5200110001 9999    20151231 01002   0003801                         MELILLA                  MELILLA                  03224LAS RIMAS                00000                                                              5200110001 9999 
5200101002   00038010322400000            5200120002 9998    20151231 01002   0003801                         MELILLA                  MELILLA                  03224LAS RIMAS                00000                                                              5200120002 9998 
5200101002   00038010330000000            5200110001 9999    20151231 01002   0003801                         MELILLA                  MELILLA                  03300LEON FELIPE              00000                                                              5200110001 9999 
5200101002   00038010330000000            5200120002 9998    20151231 01002   0003801                         MELILLA                  MELILLA                  03300LEON FELIPE              00000                                                              5200120002 9998 
5200101002   00038010334500000            5200110001 9999    20151231 01002   0003801                         MELILLA                  MELILLA                  03345LOS POEMAS               00000                                                              5200110001 9999 
5200101002   00038010334500000            5200120002 9998    20151231 01002   0003801                         MELILLA                  MELILLA                  03345LOS POEMAS               00000                                                              5200120002 9998 
5200101002   00038010334600000            5200110001 9999    20151231 01002   0003801                         MELILLA                  MELILLA                  03346LOS VERSOS               00000                                                              5200110001 9999 
5200101002   00038010334600000            5200120002 9998    20151231 01002   0003801                         MELILLA                  MELILLA                  03346LOS VERSOS               00000                                                              5200120002 9998 
5200101002   00038010337000000            5200110001 9999    20151231 01002   0003801                         MELILLA                  MELILLA                  03370LUIS CERNUDA             00000                                                              5200110001 9999 
5200101002   00038010337000000            5200120002 9998    20151231 01002   0003801                         MELILLA                  MELILLA                  03370LUIS CERNUDA             00000                                                              5200120002 9998 
5200101002   00038010357000000            5200120002 9998    20151231 01002   0003801                         MELILLA                  MELILLA                  03570MARIN ASTIGARRAGA, TTE.  00000                                                              5200120002 9998 
5200101002   00038010366000000            5200120002 9998    20151231 01002   0003801                         MELILLA                  MELILLA                  03660MARTIN GALINDO           00000                                                              5200120002 9998 
5200101002   00038010366000000            5200110005 9999    20151231 01002   0003801                         MELILLA                  MELILLA                  03660MARTIN GALINDO           00000                                                              5200110005 9999 
5200101002   00038010387000000            5200110001 9999    20151231 01002   0003801                         MELILLA                  MELILLA                  03870MIGUEL FERNANDEZ         00000                                                              5200110001 9999 
5200101002   00038010387000000            5200120002 9998    20151231 01002   0003801                         MELILLA                  MELILLA                  03870MIGUEL FERNANDEZ         00000                                                              5200120002 9998 
5200101002   00038010389000000            5200100000S0000S   20151231 01002   0003801                         MELILLA                  MELILLA                  03890MIGUEL HERNANDEZ-A       00000                                                              5200100000S0000S
5200101002   00038010389000000            5200110001 9999    20151231 01002   0003801                         MELILLA                  MELILLA                  03890MIGUEL HERNANDEZ-A       00000                                                              5200110001 9999 
5200101002   00038010389000000            5200120002 9998    20151231 01002   0003801                         MELILLA                  MELILLA                  03890MIGUEL HERNANDEZ-A       00000                                                              5200120002 9998 
5200101002   00038010390000000            5200110001 9999    20151231 01002   0003801                         MELILLA                  MELILLA                  03900MIGUEL HERNANDEZ         00000                                                              5200110001 9999 
5200101002   00038010390000000            5200120002 9998    20151231 01002   0003801                         MELILLA                  MELILLA                  03900MIGUEL HERNANDEZ         00000                                                              5200120002 9998 
5200101002   00038010427000000            5200110001 9999    20151231 01002   0003801                         MELILLA                  MELILLA                  04270PABLO NERUDA             00000                                                              5200110001 9999 
5200101002   00038010427000000            5200120002 9998    20151231 01002   0003801                         MELILLA                  MELILLA                  04270PABLO NERUDA             00000                                                              5200120002 9998 
5200101002   00038010451000000            5200110001 9999    20151231 01002   0003801                         MELILLA                  MELILLA                  04510PEDRO SALINAS            00000                                                              5200110001 9999 
5200101002   00038010451000000            5200120002 9998    20151231 01002   0003801                         MELILLA                  MELILLA                  04510PEDRO SALINAS            00000                                                              5200120002 9998 
5200101002   00038010470600000            5200110001 9999    20151231 01002   0003801                         MELILLA                  MELILLA                  04706LA POESIA                00000                                                              5200110001 9999 
5200101002   00038010470600000            5200120002 9998    20151231 01002   0003801                         MELILLA                  MELILLA                  04706LA POESIA                00000                                                              5200120002 9998 
5200101002   00038010470700000            5200110001 9999    20151231 01002   0003801                         MELILLA                  MELILLA                  04707LOS POETAS               00000                                                              5200110001 9999 
5200101002   00038010470700000            5200120002 9998    20151231 01002   0003801                         MELILLA                  MELILLA                  04707LOS POETAS               00000                                                              5200120002 9998 
5200101002   00038010474500000            5200110001 9999    20151231 01002   0003801                         MELILLA                  MELILLA                  04745LA PROSA                 00000                                                              5200110001 9999 
5200101002   00038010474500000            5200120002 9998    20151231 01002   0003801                         MELILLA                  MELILLA                  04745LA PROSA                 00000                                                              5200120002 9998 
5200101002   00038010481000000            5200110001 9999    20151231 01002   0003801                         MELILLA                  MELILLA                  04810RAFAEL ALBERTI           00000                                                              5200110001 9999 
5200101002   00038010481000000            5200120002 9998    20151231 01002   0003801                         MELILLA                  MELILLA                  04810RAFAEL ALBERTI           00000                                                              5200120002 9998 
5200101002   00038010497500000            5200110001 9999    20151231 01002   0003801                         MELILLA                  MELILLA                  04975COMPAÑIA DE MAR          00000                                                              5200110001 9999 
5200101002   00038010497500000            5200120002 9998    20151231 01002   0003801                         MELILLA                  MELILLA                  04975COMPAÑIA DE MAR          00000                                                              5200120002 9998 
5200101002   00038010502000000            5200110001 9999    20151231 01002   0003801                         MELILLA                  MELILLA                  05020RUBEN DARIO              00000                                                              5200110001 9999 
5200101002   00038010502000000            5200120002 9998    20151231 01002   0003801                         MELILLA                  MELILLA                  05020RUBEN DARIO              00000                                                              5200120002 9998 
5200101002   00038010581000000            5200110001 9999    20151231 01002   0003801                         MELILLA                  MELILLA                  05810VICENTE ALEIXANDRE       00000                                                              5200110001 9999 
5200101002   00038010581000000            5200120002 9998    20151231 01002   0003801                         MELILLA                  MELILLA                  05810VICENTE ALEIXANDRE       00000                                                              5200120002 9998 
5200101002   00038011388000000            5200110001 9999    20151231 01002   0003801                         MELILLA                  MELILLA                  13880EL SONETO                00000                                                              5200110001 9999 
5200101002   00038011388000000            5200120002 9998    20151231 01002   0003801                         MELILLA                  MELILLA                  13880EL SONETO                00000                                                              5200120002 9998 
5200102001   00038010002000000            5200110001 9999    20151231 02001   0003801                         MELILLA                  MELILLA                  00020ABDELKADER               00000                                                              5200110001 9999 
5200102001   00038010002000000            5200120002 9998    20151231 02001   0003801                         MELILLA                  MELILLA                  00020ABDELKADER               00000                                                              5200120002 9998 
5200102001   00038010014000000            5200110001 0003    20151231 02001   0003801                         MELILLA                  MELILLA                  00140AGUILAR DE MERA, TENIENTE00000                                                              5200110001 0003 
5200102001   00038010032000000            5200110001 0001    20151231 02001   0003801                         MELILLA                  MELILLA                  00320ALMODOVAR, DUQUE DE      00000                                                              5200110001 0001 
5200102001   00038010032000000            5200120002 0002    20151231 02001   0003801                         MELILLA                  MELILLA                  00320ALMODOVAR, DUQUE DE      00000                                                              5200120002 0002 
5200102001   00038010069000000            5200110001 9999    20151231 02001   0003801                         MELILLA                  MELILLA                  00690AVIACION ESPAÑOLA        00000                                                              5200110001 9999 
5200102001   00038010069000000            5200120002 9998    20151231 02001   0003801                         MELILLA                  MELILLA                  00690AVIACION ESPAÑOLA        00000                                                              5200120002 9998 
5200102001   00038010077000000            5200110001 9999    20151231 02001   0003801                         MELILLA                  MELILLA                  00770JUSTO SANCHO MIÑANO      00000                                                              5200110001 9999 
5200102001   00038010077000000            5200120002 9998    20151231 02001   0003801                         MELILLA                  MELILLA                  00770JUSTO SANCHO MIÑANO      00000                                                              5200120002 9998 
5200102001   00038010103000000            5200110001 0009    20151231 02001   0003801                         MELILLA                  MELILLA                  01030CANDIDO LOBERA           00000                                                              5200110001 0009 
5200102001   00038010103000000            5200120002 0010    20151231 02001   0003801                         MELILLA                  MELILLA                  01030CANDIDO LOBERA           00000                                                              5200120002 0010 
5200102001   00038010129900000            5200120002 0002    20151231 02001   0003801                         MELILLA                  MELILLA                  01299CASTELAR                 00000                                                              5200120002 0002 
5200102001   00038010132900000            5200420002 9998    20151231 02001   0003801                         MELILLA                  MELILLA                  01329CASTILLEJOS              00000                                                              5200420002 9998 
5200102001   00038010139000000            5200110001 9999    20151231 02001   0003801                         MELILLA                  MELILLA                  01390MIGUEL DE CERVANTES      00000                                                              5200110001 9999 
5200102001   00038010139000000            5200120002 9998    20151231 02001   0003801                         MELILLA                  MELILLA                  01390MIGUEL DE CERVANTES      00000                                                              5200120002 9998 
5200102001   00038010161000000            5200110001 9999    20151231 02001   0003801                         MELILLA                  MELILLA                  01610CHACEL, GENERAL          00000                                                              5200110001 9999 
5200102001   00038010161000000            5200120002 9998    20151231 02001   0003801                         MELILLA                  MELILLA                  01610CHACEL, GENERAL          00000                                                              5200120002 9998 
5200102001   00038010179000000            5200110001 9999    20151231 02001   0003801                         MELILLA                  MELILLA                  01790EJERCITO ESPAÑOL         00000                                                              5200110001 9999 
5200102001   00038010179000000            5200120002 9998    20151231 02001   0003801                         MELILLA                  MELILLA                  01790EJERCITO ESPAÑOL         00000                                                              5200120002 9998 
5200102001   00038010184000000            5200110001 9999    20151231 02001   0003801                         MELILLA                  MELILLA                  01840EMPERADOR, COMANDANTE    00000                                                              5200110001 9999 
5200102001   00038010184000000            5200120002 9998    20151231 02001   0003801                         MELILLA                  MELILLA                  01840EMPERADOR, COMANDANTE    00000                                                              5200120002 9998 
5200102001   00038010188000000            5200110001 0001    20151231 02001   0003801                         MELILLA                  MELILLA                  01880ESPAÑA                   00000                                                              5200110001 0001 
5200102001   00038010188000000            5200120006 9998    20151231 02001   0003801                         MELILLA                  MELILLA                  01880ESPAÑA                   00000                                                              5200120006 9998 
5200102001   00038010188000000            5200110007 9999    20151231 02001   0003801                         MELILLA                  MELILLA                  01880ESPAÑA                   00000                                                              5200110007 9999 
5200102001   00038010234000000            5200110001 9999    20151231 02001   0003801                         MELILLA                  MELILLA                  02340SEVERO OCHOA             00000                                                              5200110001 9999 
5200102001   00038010234000000            5200120002 9998    20151231 02001   0003801                         MELILLA                  MELILLA                  02340SEVERO OCHOA             00000                                                              5200120002 9998 
5200102001   00038010264000000            5200110001 9999    20151231 02001   0003801                         MELILLA                  MELILLA                  02640HEROES DE ESPAÑA         00000                                                              5200110001 9999 
5200102001   00038010264000000            5200120002 9998    20151231 02001   0003801                         MELILLA                  MELILLA                  02640HEROES DE ESPAÑA         00000                                                              5200120002 9998 
5200102001   00038010296000000            5200110001 9999    20151231 02001   0003801                         MELILLA                  MELILLA                  02960JOSE ANTONIO PRIMO DE RIV00000                                                              5200110001 9999 
5200102001   00038010296000000            5200120002 9998    20151231 02001   0003801                         MELILLA                  MELILLA                  02960JOSE ANTONIO PRIMO DE RIV00000                                                              5200120002 9998 
5200102001   00038010302000000            5200110001 9999    20151231 02001   0003801                         MELILLA                  MELILLA                  03020JUAN CARLOS I, REY       00000                                                              5200110001 9999 
5200102001   00038010302000000            5200120002 0034    20151231 02001   0003801                         MELILLA                  MELILLA                  03020JUAN CARLOS I, REY       00000                                                              5200120002 0034 
5200102001   00038010334000000            5200110001 9999    20151231 02001   0003801                         MELILLA                  MELILLA                  03340LOPEZ MORENO             00000                                                              5200110001 9999 
5200102001   00038010343000000            5200110001 0005    20151231 02001   0003801                         MELILLA                  MELILLA                  03430MACIAS, GENERAL          00000                                                              5200110001 0005 
5200102001   00038010357000000            5200110001 0005    20151231 02001   0003801                         MELILLA                  MELILLA                  03570MARIN ASTIGARRAGA, TTE.  00000                                                              5200110001 0005 
5200102001   00038010360000000            5200110001 9999    20151231 02001   0003801                         MELILLA                  MELILLA                  03600MARINA, GENERAL          00000                                                              5200110001 9999 
5200102001   00038010360000000            5200120002 9998    20151231 02001   0003801                         MELILLA                  MELILLA                  03600MARINA, GENERAL          00000                                                              5200120002 9998 
5200102001   00038010382000000            5200120004 9998    20151231 02001   0003801                         MELILLA                  MELILLA                  03820MENENDEZ PELAYO          00000                                                              5200120004 9998 
5200102001   00038010382000000            5200110001 9999    20151231 02001   0003801                         MELILLA                  MELILLA                  03820MENENDEZ PELAYO          00000                                                              5200110001 9999 
5200102001   00038010420000000            5200110001 9999    20151231 02001   0003801                         MELILLA                  MELILLA                  04200O'DONNELL, GENERAL       00000                                                              5200110001 9999 
5200102001   00038010420000000            5200120002 9998    20151231 02001   0003801                         MELILLA                  MELILLA                  04200O'DONNELL, GENERAL       00000                                                              5200120002 9998 
5200102001   00038010428000000            5200110001 9999    20151231 02001   0003801                         MELILLA                  MELILLA                  04280PABLO VALLESCA           00000                                                              5200110001 9999 
5200102001   00038010428000000            5200120016 9998    20151231 02001   0003801                         MELILLA                  MELILLA                  04280PABLO VALLESCA           00000                                                              5200120016 9998 
5200102001   00038010438000000            5200110001 9999    20151231 02001   0003801                         MELILLA                  MELILLA                  04380PAREJA, GENERAL          00000                                                              5200110001 9999 
5200102001   00038010438000000            5200120002 9998    20151231 02001   0003801                         MELILLA                  MELILLA                  04380PAREJA, GENERAL          00000                                                              5200120002 9998 
5200102001   00038010474000000            5200110001 9999    20151231 02001   0003801                         MELILLA                  MELILLA                  04740PRIM, GENERAL            00000                                                              5200110001 9999 
5200102001   00038010474000000            5200120002 9998    20151231 02001   0003801                         MELILLA                  MELILLA                  04740PRIM, GENERAL            00000                                                              5200120002 9998 
5200102001   00038010492000000            5200310001 0005    20151231 02001   0003801                         MELILLA                  MELILLA                  04920REYES CATOLICOS          00000                                                              5200310001 0005 
5200102001   00038010494000000            5200110001 9999    20151231 02001   0003801                         MELILLA                  MELILLA                  04940ROBERTO CANO             00000                                                              5200110001 9999 
5200102001   00038010494000000            5200120002 9998    20151231 02001   0003801                         MELILLA                  MELILLA                  04940ROBERTO CANO             00000                                                              5200120002 9998 
5200102001   00038010563000000            5200410001 9999    20151231 02001   0003801                         MELILLA                  MELILLA                  05630TORRES QUEVEDO           00000                                                              5200410001 9999 
5200102001   00038010563000000            5200420002 0002    20151231 02001   0003801                         MELILLA                  MELILLA                  05630TORRES QUEVEDO           00000                                                              5200420002 0002 
5200102002   00038010016000000            5200320002 0002    20151231 02002   0003801                         MELILLA                  MELILLA                  00160AHORRO                   00000                                                              5200320002 0002 
5200102002   00038010036000000            5200410001 9999    20151231 02002   0003801                         MELILLA                  MELILLA                  00360ALONSO MARTIN            00000                                                              5200410001 9999 
5200102002   00038010036000000            5200420002 9998    20151231 02002   0003801                         MELILLA                  MELILLA                  00360ALONSO MARTIN            00000                                                              5200420002 9998 
5200102002   00038010047000000            5200410001 9999    20151231 02002   0003801                         MELILLA                  MELILLA                  00470ANTONIO FALCON           00000                                                              5200410001 9999 
5200102002   00038010047000000            5200420002 9998    20151231 02002   0003801                         MELILLA                  MELILLA                  00470ANTONIO FALCON           00000                                                              5200420002 9998 
5200102002   00038010073000000            5200410001 0003    20151231 02002   0003801                         MELILLA                  MELILLA                  00730LUIS MORANDEIRA          00000                                                              5200410001 0003 
5200102002   00038010073000000            5200420002 0004    20151231 02002   0003801                         MELILLA                  MELILLA                  00730LUIS MORANDEIRA          00000                                                              5200420002 0004 
5200102002   00038010089000000            5200410001 0003    20151231 02002   0003801                         MELILLA                  MELILLA                  00890BUCETA, GENERAL          00000                                                              5200410001 0003 
5200102002   00038010089000000            5200420002 0004    20151231 02002   0003801                         MELILLA                  MELILLA                  00890BUCETA, GENERAL          00000                                                              5200420002 0004 
5200102002   00038010102000000            5200210001 9999    20151231 02002   0003801                         MELILLA                  MELILLA                  01020CAMILO BARRACA, ALFEREZ  00000                                                              5200210001 9999 
5200102002   00038010122000000            5200410001 0001    20151231 02002   0003801                         MELILLA                  MELILLA                  01220CARLOS RAMIREZ DE ARELLAN00000                                                              5200410001 0001 
5200102002   00038010122000000            5200420002 9998    20151231 02002   0003801                         MELILLA                  MELILLA                  01220CARLOS RAMIREZ DE ARELLAN00000                                                              5200420002 9998 
5200102002   00038010132900000            5200410001 9999    20151231 02002   0003801                         MELILLA                  MELILLA                  01329CASTILLEJOS              00000                                                              5200410001 9999 
5200102002   00038010142000000            5200210001 9999    20151231 02002   0003801                         MELILLA                  MELILLA                  01420CISNEROS, CARDENAL       00000                                                              5200210001 9999 
5200102002   00038010142000000            5200220002 9998    20151231 02002   0003801                         MELILLA                  MELILLA                  01420CISNEROS, CARDENAL       00000                                                              5200220002 9998 
5200102002   00038010148000000            5200320002 0006    20151231 02002   0003801                         MELILLA                  MELILLA                  01480CONSTANCIA               00000                                                              5200320002 0006 
5200102002   00038010148000000            5200310001 0003    20151231 02002   0003801                         MELILLA                  MELILLA                  01480CONSTANCIA               00000                                                              5200310001 0003 
5200102002   00038010188000000            5200110005 0005    20151231 02002   0003801                         MELILLA                  MELILLA                  01880ESPAÑA                   00000                                                              5200110005 0005 
5200102002   00038010220000000            5200210001 9999    20151231 02002   0003801                         MELILLA                  MELILLA                  02200GABRIEL DE MORALES       00000                                                              5200210001 9999 
5200102002   00038010220000000            5200220002 9998    20151231 02002   0003801                         MELILLA                  MELILLA                  02200GABRIEL DE MORALES       00000                                                              5200220002 9998 
5200102002   00038010222000000            5200210001 0013    20151231 02002   0003801                         MELILLA                  MELILLA                  02220GARCIA CABRELLES         00000                                                              5200210001 0013 
5200102002   00038010254000000            5200310001 0005    20151231 02002   0003801                         MELILLA                  MELILLA                  02540GUILOCHE, CAPITAN        00000                                                              5200310001 0005 
5200102002   00038010261000000            5200410001 9999    20151231 02002   0003801                         MELILLA                  MELILLA                  02610HERNANDEZ                00000                                                              5200410001 9999 
5200102002   00038010261000000            5200420002 9998    20151231 02002   0003801                         MELILLA                  MELILLA                  02610HERNANDEZ                00000                                                              5200420002 9998 
5200102002   00038010279000000            5200320002 0004    20151231 02002   0003801                         MELILLA                  MELILLA                  02790IBAÑEZ MARIN             00000                                                              5200320002 0004 
5200102002   00038010280000000            5200310001 9999    20151231 02002   0003801                         MELILLA                  MELILLA                  02800ILDEFONSO INFANTES       00000                                                              5200310001 9999 
5200102002   00038010280000000            5200320002 9998    20151231 02002   0003801                         MELILLA                  MELILLA                  02800ILDEFONSO INFANTES       00000                                                              5200320002 9998 
5200102002   00038010281000000            5200220002 0028    20151231 02002   0003801                         MELILLA                  MELILLA                  02810INFANTERIA               00000                                                              5200220002 0028 
5200102002   00038010301000000            5200310001 9999    20151231 02002   0003801                         MELILLA                  MELILLA                  03010JUAN DE AUSTRIA          00000                                                              5200310001 9999 
5200102002   00038010301000000            5200320002 9998    20151231 02002   0003801                         MELILLA                  MELILLA                  03010JUAN DE AUSTRIA          00000                                                              5200320002 9998 
5200102002   00038010305000000            5200210001 9999    20151231 02002   0003801                         MELILLA                  MELILLA                  03050JUAN DE LANUZA           00000                                                              5200210001 9999 
5200102002   00038010305000000            5200220002 9998    20151231 02002   0003801                         MELILLA                  MELILLA                  03050JUAN DE LANUZA           00000                                                              5200220002 9998 
5200102002   00038010333000000            5200210001 9999    20151231 02002   0003801                         MELILLA                  MELILLA                  03330LOPE DE VEGA             00000                                                              5200210001 9999 
5200102002   00038010333000000            5200220002 9998    20151231 02002   0003801                         MELILLA                  MELILLA                  03330LOPE DE VEGA             00000                                                              5200220002 9998 
5200102002   00038010340000000            5200420002 0004    20151231 02002   0003801                         MELILLA                  MELILLA                  03400LUIS DE SOTOMAYOR        00000                                                              5200420002 0004 
5200102002   00038010340000000            5200410001 0005    20151231 02002   0003801                         MELILLA                  MELILLA                  03400LUIS DE SOTOMAYOR        00000                                                              5200410001 0005 
5200102002   00038010361000000            5200320002 0004    20151231 02002   0003801                         MELILLA                  MELILLA                  03610MARINA FARINOS, FALANGIST00000                                                              5200320002 0004 
5200102002   00038010392000000            5200420002 0002    20151231 02002   0003801                         MELILLA                  MELILLA                  03920MIGUEL ZAZO              00000                                                              5200420002 0002 
5200102002   00038010405000000            5200210001 9999    20151231 02002   0003801                         MELILLA                  MELILLA                  04050MUÑOZ TORREROS           00000                                                              5200210001 9999 
5200102002   00038010405000000            5200220002 9998    20151231 02002   0003801                         MELILLA                  MELILLA                  04050MUÑOZ TORREROS           00000                                                              5200220002 9998 
5200102002   00038010453000000            5200410001 9999    20151231 02002   0003801                         MELILLA                  MELILLA                  04530PEDRO SEGURA             00000                                                              5200410001 9999 
5200102002   00038010453000000            5200420002 9998    20151231 02002   0003801                         MELILLA                  MELILLA                  04530PEDRO SEGURA             00000                                                              5200420002 9998 
5200102002   00038010458000000            5200310001 9999    20151231 02002   0003801                         MELILLA                  MELILLA                  04580PEÑUELAS, HERMANOS       00000                                                              5200310001 9999 
5200102002   00038010458000000            5200320002 9998    20151231 02002   0003801                         MELILLA                  MELILLA                  04580PEÑUELAS, HERMANOS       00000                                                              5200320002 9998 
5200102002   00038010470000000            5200310001 9999    20151231 02002   0003801                         MELILLA                  MELILLA                  04700PLUS ULTRA, TRIPULANTES D00000                                                              5200310001 9999 
5200102002   00038010470000000            5200320002 9998    20151231 02002   0003801                         MELILLA                  MELILLA                  04700PLUS ULTRA, TRIPULANTES D00000                                                              5200320002 9998 
5200102002   00038010485000000            5200210001 9999    20151231 02002   0003801                         MELILLA                  MELILLA                  04850RAMON Y CAJAL            00000                                                              5200210001 9999 
5200102002   00038010485000000            5200220002 9998    20151231 02002   0003801                         MELILLA                  MELILLA                  04850RAMON Y CAJAL            00000                                                              5200220002 9998 
5200102002   00038010492000000            5200320002 0032    20151231 02002   0003801                         MELILLA                  MELILLA                  04920REYES CATOLICOS          00000                                                              5200320002 0032 
5200102002   00038010492000000            5200310007 0019    20151231 02002   0003801                         MELILLA                  MELILLA                  04920REYES CATOLICOS          00000                                                              5200310007 0019 
5200102002   00038010508000000            5200320006 9998    20151231 02002   0003801                         MELILLA                  MELILLA                  05080SAMANIEGO, TENIENTE      00000                                                              5200320006 9998 
5200102002   00038010513000000            5200210001 9999    20151231 02002   0003801                         MELILLA                  MELILLA                  05130SAN JUAN BAUTISTA DE LA S00000                                                              5200210001 9999 
5200102002   00038010513000000            5200220002 9998    20151231 02002   0003801                         MELILLA                  MELILLA                  05130SAN JUAN BAUTISTA DE LA S00000                                                              5200220002 9998 
5200102002   00038010521000000            5200310001 9999    20151231 02002   0003801                         MELILLA                  MELILLA                  05210SANCHO DAVILA            00000                                                              5200310001 9999 
5200102002   00038010521000000            5200320002 9998    20151231 02002   0003801                         MELILLA                  MELILLA                  05210SANCHO DAVILA            00000                                                              5200320002 9998 
5200102002   00038010541000000            5200210001 9999    20151231 02002   0003801                         MELILLA                  MELILLA                  05410SOR ALEGRIA              00000                                                              5200210001 9999 
5200102002   00038010541000000            5200220002 9998    20151231 02002   0003801                         MELILLA                  MELILLA                  05410SOR ALEGRIA              00000                                                              5200220002 9998 
5200102002   00038010563000000            5200420004 9998    20151231 02002   0003801                         MELILLA                  MELILLA                  05630TORRES QUEVEDO           00000                                                              5200420004 9998 
5200102002   00038010576000000            5200210001 9999    20151231 02002   0003801                         MELILLA                  MELILLA                  05760VARA DEL REY             00000                                                              5200210001 9999 
5200102002   00038010576000000            5200220002 9998    20151231 02002   0003801                         MELILLA                  MELILLA                  05760VARA DEL REY             00000                                                              5200220002 9998 
5200102002   00038010587000000            5200220002 9998    20151231 02002   0003801                         MELILLA                  MELILLA                  05870DOCTOR RODRIGUEZ PORTILLO00000                                                              5200220002 9998 
5200102002   00038010587000000            5200210003 9999    20151231 02002   0003801                         MELILLA                  MELILLA                  05870DOCTOR RODRIGUEZ PORTILLO00000                                                              5200210003 9999 
5200102002   00038010588000000            5200320002 9998    20151231 02002   0003801                         MELILLA                  MELILLA                  05880VILLAFAÑAS               00000                                                              5200320002 9998 
5200102002   00038010598000000            5200210001 9999    20151231 02002   0003801                         MELILLA                  MELILLA                  05980WEILER, GENERAL          00000                                                              5200210001 9999 
5200102002   00038010598000000            5200220002 9998    20151231 02002   0003801                         MELILLA                  MELILLA                  05980WEILER, GENERAL          00000                                                              5200220002 9998 
5200102002   00038010600000000            5200210001 9999    20151231 02002   0003801                         MELILLA                  MELILLA                  06000ZABALA Y GALLARDO        00000                                                              5200210001 9999 
5200102002   00038010600000000            5200220002 9998    20151231 02002   0003801                         MELILLA                  MELILLA                  06000ZABALA Y GALLARDO        00000                                                              5200220002 9998 
5200102002   00038010603000000            5200310001 9999    20151231 02002   0003801                         MELILLA                  MELILLA                  06030ZORRILLA, POETA          00000                                                              5200310001 9999 
5200102003   00038010016000000            5200310001 9999    20151231 02003   0003801                         MELILLA                  MELILLA                  00160AHORRO                   00000                                                              5200310001 9999 
5200102003   00038010016000000            5200320004 9998    20151231 02003   0003801                         MELILLA                  MELILLA                  00160AHORRO                   00000                                                              5200320004 9998 
5200102003   00038010022000000            5200310001 0005    20151231 02003   0003801                         MELILLA                  MELILLA                  00220PRIMERO DE MAYO          00000                                                              5200310001 0005 
5200102003   00038010052000000            5200310001 9999    20151231 02003   0003801                         MELILLA                  MELILLA                  00520ANTONIO ZEA              00000                                                              5200310001 9999 
5200102003   00038010052000000            5200320002 9998    20151231 02003   0003801                         MELILLA                  MELILLA                  00520ANTONIO ZEA              00000                                                              5200320002 9998 
5200102003   00038010068000000            5200310001 9999    20151231 02003   0003801                         MELILLA                  MELILLA                  00680AVELLANEDA, TENIENTE CORO00000                                                              5200310001 9999 
5200102003   00038010068000000            5200320002 9998    20151231 02003   0003801                         MELILLA                  MELILLA                  00680AVELLANEDA, TENIENTE CORO00000                                                              5200320002 9998 
5200102003   00038010073000000            5200420006 0008    20151231 02003   0003801                         MELILLA                  MELILLA                  00730LUIS MORANDEIRA          00000                                                              5200420006 0008 
5200102003   00038010089000000            5200410005 9999    20151231 02003   0003801                         MELILLA                  MELILLA                  00890BUCETA, GENERAL          00000                                                              5200410005 9999 
5200102003   00038010089000000            5200420006 9998    20151231 02003   0003801                         MELILLA                  MELILLA                  00890BUCETA, GENERAL          00000                                                              5200420006 9998 
5200102003   00038010122000000            5200410003 9999    20151231 02003   0003801                         MELILLA                  MELILLA                  01220CARLOS RAMIREZ DE ARELLAN00000                                                              5200410003 9999 
5200102003   00038010148000000            5200320008 9998    20151231 02003   0003801                         MELILLA                  MELILLA                  01480CONSTANCIA               00000                                                              5200320008 9998 
5200102003   00038010148000000            5200310005 9999    20151231 02003   0003801                         MELILLA                  MELILLA                  01480CONSTANCIA               00000                                                              5200310005 9999 
5200102003   00038010221000000            5200310001 9999    20151231 02003   0003801                         MELILLA                  MELILLA                  02210GARCERAN, DOCTOR         00000                                                              5200310001 9999 
5200102003   00038010221000000            5200320002 9998    20151231 02003   0003801                         MELILLA                  MELILLA                  02210GARCERAN, DOCTOR         00000                                                              5200320002 9998 
5200102003   00038010241000000            5200410001 9999    20151231 02003   0003801                         MELILLA                  MELILLA                  02410GRANADA                  00000                                                              5200410001 9999 
5200102003   00038010241000000            5200420002 9998    20151231 02003   0003801                         MELILLA                  MELILLA                  02410GRANADA                  00000                                                              5200420002 9998 
5200102003   00038010253000000            5200310001 9999    20151231 02003   0003801                         MELILLA                  MELILLA                  02530GUERRERO ROMERO, ALFEREZ 00000                                                              5200310001 9999 
5200102003   00038010253000000            5200320002 9998    20151231 02003   0003801                         MELILLA                  MELILLA                  02530GUERRERO ROMERO, ALFEREZ 00000                                                              5200320002 9998 
5200102003   00038010254000000            5200320002 9998    20151231 02003   0003801                         MELILLA                  MELILLA                  02540GUILOCHE, CAPITAN        00000                                                              5200320002 9998 
5200102003   00038010254000000            5200310007 9999    20151231 02003   0003801                         MELILLA                  MELILLA                  02540GUILOCHE, CAPITAN        00000                                                              5200310007 9999 
5200102003   00038010262000000            5200310001 9999    20151231 02003   0003801                         MELILLA                  MELILLA                  02620HERNANDO DE ZAFRA        00000                                                              5200310001 9999 
5200102003   00038010262000000            5200320002 9998    20151231 02003   0003801                         MELILLA                  MELILLA                  02620HERNANDO DE ZAFRA        00000                                                              5200320002 9998 
5200102003   00038010279000000            5200310001 0097    20151231 02003   0003801                         MELILLA                  MELILLA                  02790IBAÑEZ MARIN             00000                                                              5200310001 0097 
5200102003   00038010279000000            5200320006 0042    20151231 02003   0003801                         MELILLA                  MELILLA                  02790IBAÑEZ MARIN             00000                                                              5200320006 0042 
5200102003   00038010293000000            5200310001 9999    20151231 02003   0003801                         MELILLA                  MELILLA                  02930JIMENEZ BENHAMU, COMANDAN00000                                                              5200310001 9999 
5200102003   00038010293000000            5200320002 9998    20151231 02003   0003801                         MELILLA                  MELILLA                  02930JIMENEZ BENHAMU, COMANDAN00000                                                              5200320002 9998 
5200102003   00038010340000000            5200420006 9998    20151231 02003   0003801                         MELILLA                  MELILLA                  03400LUIS DE SOTOMAYOR        00000                                                              5200420006 9998 
5200102003   00038010340000000            5200410007 9999    20151231 02003   0003801                         MELILLA                  MELILLA                  03400LUIS DE SOTOMAYOR        00000                                                              5200410007 9999 
5200102003   00038010361000000            5200310001 0023    20151231 02003   0003801                         MELILLA                  MELILLA                  03610MARINA FARINOS, FALANGIST00000                                                              5200310001 0023 
5200102003   00038010392000000            5200410001 9999    20151231 02003   0003801                         MELILLA                  MELILLA                  03920MIGUEL ZAZO              00000                                                              5200410001 9999 
5200102003   00038010392000000            5200420004 9998    20151231 02003   0003801                         MELILLA                  MELILLA                  03920MIGUEL ZAZO              00000                                                              5200420004 9998 
5200102003   00038010397000000            5200420002 9998    20151231 02003   0003801                         MELILLA                  MELILLA                  03970DUQUESA DE LA VICTORIA   00000                                                              5200420002 9998 
5200102003   00038010443000000            5200310001 9999    20151231 02003   0003801                         MELILLA                  MELILLA                  04430JUAN RIOS GARCIA         00000                                                              5200310001 9999 
5200102003   00038010443000000            5200320002 9998    20151231 02003   0003801                         MELILLA                  MELILLA                  04430JUAN RIOS GARCIA         00000                                                              5200320002 9998 
5200102003   00038010460000000            5200310001 9999    20151231 02003   0003801                         MELILLA                  MELILLA                  04600PEREZ ALVAREZ, TENIENTE  00000                                                              5200310001 9999 
5200102003   00038010460000000            5200320002 9998    20151231 02003   0003801                         MELILLA                  MELILLA                  04600PEREZ ALVAREZ, TENIENTE  00000                                                              5200320002 9998 
5200102003   00038010492000000            5200310021 9999    20151231 02003   0003801                         MELILLA                  MELILLA                  04920REYES CATOLICOS          00000                                                              5200310021 9999 
5200102003   00038010492000000            5200320034 9998    20151231 02003   0003801                         MELILLA                  MELILLA                  04920REYES CATOLICOS          00000                                                              5200320034 9998 
5200102003   00038010493300000            5200410001 9999    20151231 02003   0003801                         MELILLA                  MELILLA                  04933RIO DE ORO               00000                                                              5200410001 9999 
5200102003   00038010493300000            5200420002 9998    20151231 02003   0003801                         MELILLA                  MELILLA                  04933RIO DE ORO               00000                                                              5200420002 9998 
5200102003   00038010495000000            5200310001 9999    20151231 02003   0003801                         MELILLA                  MELILLA                  04950ROGER, CAPITAN           00000                                                              5200310001 9999 
5200102003   00038010495000000            5200320002 9998    20151231 02003   0003801                         MELILLA                  MELILLA                  04950ROGER, CAPITAN           00000                                                              5200320002 9998 
5200102003   00038010501000000            5200320002 9998    20151231 02003   0003801                         MELILLA                  MELILLA                  05010ROYO, COMANDANTE         00000                                                              5200320002 9998 
5200102003   00038010508000000            5200310001 9999    20151231 02003   0003801                         MELILLA                  MELILLA                  05080SAMANIEGO, TENIENTE      00000                                                              5200310001 9999 
5200102003   00038010508000000            5200320002 0004    20151231 02003   0003801                         MELILLA                  MELILLA                  05080SAMANIEGO, TENIENTE      00000                                                              5200320002 0004 
5200102003   00038010531000000            5200410001 9999    20151231 02003   0003801                         MELILLA                  MELILLA                  05310SEIJAS LOZANO            00000                                                              5200410001 9999 
5200102003   00038010531000000            5200420002 9998    20151231 02003   0003801                         MELILLA                  MELILLA                  05310SEIJAS LOZANO            00000                                                              5200420002 9998 
5200102003   00038010587000000            5200310001 0001    20151231 02003   0003801                         MELILLA                  MELILLA                  05870DOCTOR RODRIGUEZ PORTILLO00000                                                              5200310001 0001 
5200102003   00038010588000000            5200310001 9999    20151231 02003   0003801                         MELILLA                  MELILLA                  05880VILLAFAÑAS               00000                                                              5200310001 9999 
5200102003   00038014392000000            5200410001 9999    20151231 02003   0003801                         MELILLA                  MELILLA                  43920ANTONIO CALDUCH          00000                                                              5200410001 9999 
5200102003   00038014392000000            5200420002 9998    20151231 02003   0003801                         MELILLA                  MELILLA                  43920ANTONIO CALDUCH          00000                                                              5200420002 9998 
5200103001   00038010005000000            5200110001 9999    20151231 03001   0003801                         MELILLA                  MELILLA                  00050ACEITERO                 00000                                                              5200110001 9999 
5200103001   00038010005000000            5200120002 9998    20151231 03001   0003801                         MELILLA                  MELILLA                  00050ACEITERO                 00000                                                              5200120002 9998 
5200103001   00038010029000000            5200110001 9999    20151231 03001   0003801                         MELILLA                  MELILLA                  00290ALICANTE                 00000                                                              5200110001 9999 
5200103001   00038010029000000            5200120002 9998    20151231 03001   0003801                         MELILLA                  MELILLA                  00290ALICANTE                 00000                                                              5200120002 9998 
5200103001   00038010031000000            5200110001 9999    20151231 03001   0003801                         MELILLA                  MELILLA                  00310ALMERIA                  00000                                                              5200110001 9999 
5200103001   00038010031000000            5200120002 9998    20151231 03001   0003801                         MELILLA                  MELILLA                  00310ALMERIA                  00000                                                              5200120002 9998 
5200103001   00038010080000000            5200110001 0003    20151231 03001   0003801                         MELILLA                  MELILLA                  00800BERNARDINO DE MENDOZA    00000                                                              5200110001 0003 
5200103001   00038010080000000            5200120002 0002    20151231 03001   0003801                         MELILLA                  MELILLA                  00800BERNARDINO DE MENDOZA    00000                                                              5200120002 0002 
5200103001   00038010095000000            5200110001 9999    20151231 03001   0003801                         MELILLA                  MELILLA                  00950CADIZ                    00000                                                              5200110001 9999 
5200103001   00038010095000000            5200120002 9998    20151231 03001   0003801                         MELILLA                  MELILLA                  00950CADIZ                    00000                                                              5200120002 9998 
5200103001   00038010105000000            5200110001 9999    20151231 03001   0003801                         MELILLA                  MELILLA                  01050CANOVAS DEL CASTILLO     00000                                                              5200110001 9999 
5200103001   00038010105000000            5200120002 9998    20151231 03001   0003801                         MELILLA                  MELILLA                  01050CANOVAS DEL CASTILLO     00000                                                              5200120002 9998 
5200103001   00038010116000000            5200110001 9999    20151231 03001   0003801                         MELILLA                  MELILLA                  01160CURRUQUERO               00000                                                              5200110001 9999 
5200103001   00038010116000000            5200120002 9998    20151231 03001   0003801                         MELILLA                  MELILLA                  01160CURRUQUERO               00000                                                              5200120002 9998 
5200103001   00038010129900000            5200120004 9998    20151231 03001   0003801                         MELILLA                  MELILLA                  01299CASTELAR                 00000                                                              5200120004 9998 
5200103001   00038010130500000            5200110001 9999    20151231 03001   0003801                         MELILLA                  MELILLA                  01305CASTELLON DE LA PLANA    00000                                                              5200110001 9999 
5200103001   00038010150000000            5200110001 9999    20151231 03001   0003801                         MELILLA                  MELILLA                  01500CORDOBA                  00000                                                              5200110001 9999 
5200103001   00038010150000000            5200120002 9998    20151231 03001   0003801                         MELILLA                  MELILLA                  01500CORDOBA                  00000                                                              5200120002 9998 
5200103001   00038010167800000            5200110001 9999    20151231 03001   0003801                         MELILLA                  MELILLA                  01678DAVID MELUL              00000                                                              5200110001 9999 
5200103001   00038010167800000            5200120002 9998    20151231 03001   0003801                         MELILLA                  MELILLA                  01678DAVID MELUL              00000                                                              5200120002 9998 
5200103001   00038010177000000            5200110001 9999    20151231 03001   0003801                         MELILLA                  MELILLA                  01770ECHEGARAY                00000                                                              5200110001 9999 
5200103001   00038010177000000            5200120002 9998    20151231 03001   0003801                         MELILLA                  MELILLA                  01770ECHEGARAY                00000                                                              5200120002 9998 
5200103001   00038010179500000            5200110001 9999    20151231 03001   0003801                         MELILLA                  MELILLA                  01795ELCHE, DE                00000                                                              5200110001 9999 
